:020000040800F2
:1000000000500020BD390008893800088B380008EE
:100010008D3800088F380008913800080000000073
:1000200000000000000000000000000091600008D7
:100030009338000800000000316100087561000875
:10004000053A0008053A0008053A0008053A000894
:10005000053A0008053A0008053A0008053A000884
:10006000053A0008053A0008053A0008053A000874
:10007000053A0008053A0008053A0008053A000864
:10008000053A0008053A0008053A0008053A000854
:10009000053A0008053A0008053A0008053A000844
:1000A000053A0008053A0008053A0008053A000834
:1000B000053A0008053A000895380008053A000896
:1000C000053A0008053A0008053A0008053A000814
:1000D000053A0008A5380008053A0008053A000866
:1000E000053A0008053A0008053A0008000000003B
:1000F0000000000000000000000000000000000000
:0C01000000000000000000005FF808F1A3
:1001100080F0004002E000BF81F0004142001FBFBC
:100120005FEA410392EA030F7FEA226C7FEA236CC5
:100130006AD04FEA1262D2EB1363C1BFD2184140BA
:1001400048404140B8BF5B42192B88BF704710F050
:10015000004F40F4000020F07F4018BF404211F0F3
:10016000004F41F4000121F07F4118BF494292EA5B
:10017000030F3FD0A2F1010241FA03FC10EB0C0087
:10018000C3F1200301FA03F100F0004302D5494214
:1001900060EB4000B0F5000F13D3B0F1807F06D3C1
:1001A00040084FEA310102F10102FE2A51D2B1F1B9
:1001B000004F40EBC25008BF20F0010040EA0300AE
:1001C0007047490040EB0000013A28BFB0F5000F2E
:1001D000EDD2B0FA80FCACF1080CB2EB0C0200FAE4
:1001E0000CF0AABF00EBC25052421843BCBFD04033
:1001F0001843704792F0000F81F4000106BF80F4AD
:1002000000000132013BB5E74FEA41037FEA226C6F
:1002100018BF7FEA236C21D092EA030F04D092F03A
:10022000000F08BF0846704790EA010F1CBF00206E
:10023000704712F07F4F04D1400028BF40F00040CB
:10024000704712F100723CBF00F50000704700F0EB
:10025000004343F0FE4040F4000070477FEA226212
:1002600016BF08467FEA23630146420206BF5FEAE3
:10027000412390EA010F40F4800070474FF00003E3
:1002800004E000BF10F0004348BF40425FEA000CAA
:1002900008BF704743F0964301464FF000001CE052
:1002A00050EA010208BF70474FF000030AE000BFA8
:1002B00050EA010208BF704711F0004302D54042E6
:1002C00061EB41015FEA010C02BF84460146002058
:1002D00043F0B64308BFA3F18053A3F50003BCFA73
:1002E0008CF2083AA3EBC25310DB01FA02FC634420
:1002F00000FA02FCC2F12002BCF1004F20FA02F227
:1003000043EB020008BF20F00100704702F1200219
:1003100001FA02FCC2F1200250EA4C0021FA02F27A
:1003200043EB020008BF20EADC7070474FF0FF0C7F
:100330001CEAD0521EBF1CEAD15392EA0C0F93EA7A
:100340000C0F6FD01A4480EA010C400218BF5FEA1C
:1003500041211ED04FF0006343EA501043EA51118F
:10036000A0FB01310CF00040B1F5000F3EBF490089
:1003700041EAD3715B0040EA010062F17F02FD2A8D
:100380001DD8B3F1004F40EBC25008BF20F0010070
:10039000704790F0000F0CF0004C08BF49024CEA87
:1003A000502040EA51207F3AC2BFD2F1FF0340EA19
:1003B000C250704740F400004FF00003013A5DDC8A
:1003C00012F1190FDCBF00F000407047C2F10002CB
:1003D000410021FA02F1C2F1200200FA02FC5FEAB8
:1003E000310040F1000053EA4C0308BF20EADC7002
:1003F000704792F0000F00F0004C02BF400010F474
:10040000000F013AF9D040EA0C0093F0000F01F020
:10041000004C02BF490011F4000F013BF9D041EA42
:100420000C018FE70CEAD15392EA0C0F18BF93EA44
:100430000C0F0AD030F0004C18BF31F0004CD8D16E
:1004400080EA010000F00040704790F0000F17BFF5
:1004500090F0004F084691F0000F91F0004F14D03B
:1004600092EA0C0F01D142020FD193EA0C0F03D193
:100470004B0218BF084608D180EA010000F0004096
:1004800040F0FE4040F40000704740F0FE4040F471
:10049000400070474FF0FF0C1CEAD0521EBF1CEA10
:1004A000D15392EA0C0F93EA0C0F69D0A2EB03022E
:1004B00080EA010C49024FEA402037D04FF08053C8
:1004C00043EA111143EA10130CF000408B4238BF8D
:1004D0005B0042F17D024FF4000C8B4224BF5B1A9B
:1004E00040EA0C00B3EB510F24BFA3EB510340EAE9
:1004F0005C00B3EB910F24BFA3EB910340EA9C0097
:10050000B3EBD10F24BFA3EBD10340EADC001B0106
:1005100018BF5FEA1C1CE0D1FD2A3FF650AF8B42AA
:1005200040EBC25008BF20F0010070470CF0004CB7
:100530004CEA50207F32C2BFD2F1FF0340EAC250E2
:10054000704740F400004FF00003013A37E792F0A3
:10055000000F00F0004C02BF400010F4000F013A01
:10056000F9D040EA0C0093F0000F01F0004C02BFFC
:10057000490011F4000F013BF9D041EA0C0195E765
:100580000CEAD15392EA0C0F08D142027FF47DAFFE
:1005900093EA0C0F7FF470AF084676E793EA0C0FEE
:1005A00004D14B023FF44CAF08466EE730F0004CEC
:1005B00018BF31F0004CCAD130F000427FF45CAF7C
:1005C00031F000437FF43CAF5FE700BF4FF0FF3CEA
:1005D00006E000BF4FF0010C02E000BF4FF0010C3D
:1005E0004DF804CD4FEA40024FEA41037FEA226C06
:1005F00018BF7FEA236C11D001B052EA530C18BF28
:1006000090EA010F58BFB2EB030088BFC81738BF8C
:100610006FEAE17018BF40F0010070477FEA226C7A
:1006200002D15FEA402C05D17FEA236CE4D15FEA76
:10063000412CE1D05DF8040B704700BF84460846AA
:100640006146FFE70FB5FFF7C9FF002848BF10F16B
:10065000000F0FBD4DF808EDFFF7F4FF0CBF0120B0
:1006600000205DF808FB00BF4DF808EDFFF7EAFF3A
:1006700034BF012000205DF808FB00BF4DF808EDF5
:10068000FFF7E0FF94BF012000205DF808FB00BFEA
:100690004DF808EDFFF7D2FF94BF012000205DF870
:1006A00008FB00BF4DF808EDFFF7C8FF34BF01207D
:1006B00000205DF808FB00BF4FEA4002B2F1FE4F98
:1006C0000FD34FF09E03B3EB12620DD94FEA002314
:1006D00043F0004310F0004F23FA02F018BF4042ED
:1006E00070474FF00000704712F1610F01D14202D4
:1006F00005D110F0004008BF6FF0004070474FF088
:100700000000704742000ED2B2F1FE4F0BD34FF003
:100710009E03B3EB126209D44FEA002343F0004377
:1007200023FA02F070474FF00000704712F1610F9A
:1007300001D1420202D14FF0FF3070474FF000006C
:10074000704700BF7BB972B90029BEBF00204FF0CF
:10075000004106E008BF00281CBF6FF000414FF0C9
:10076000FF3000F0A9B9ADF1080C6DE904CE002905
:1007700009DB002B1ADB00F035F8DDF804E0DDE9D9
:10078000022304B07047404261EB4101002B1BDBA8
:1007900000F028F8DDF804E0DDE9022304B040426F
:1007A00061EB4101524263EB43037047524263EBFA
:1007B000430300F017F8DDF804E0DDE9022304B09C
:1007C000404261EB41017047524263EB430300F04A
:1007D00009F8DDF804E0DDE9022304B0524263EBDE
:1007E000430370472DE9F047089E0D4604468846AE
:1007F000002B4DD18A42944668D9B2FA82F252B1A6
:1008000001FA02F3C2F1200120FA01F10CFA02FC14
:1008100041EA030894404FEA1C41B8FBF1F71FFA84
:100820008CFE01FB178807FB0EF0230C43EA0843FC
:1008300098420AD91CEB030307F1FF3580F01E81B3
:10084000984240F21B81023F63441B1AB3FBF1F054
:1008500001FB103300FB0EFEA4B244EA0344A6459C
:100860000AD91CEB040400F1FF3380F00981A6458E
:1008700040F20681644402380021A4EB0E0440EAF1
:1008800007401EB10023D440C6E90043BDE8F0870D
:100890008B4208D9002E00F0EE800021C6E9000549
:1008A0000846BDE8F087B3FA83F100294AD1AB428C
:1008B00002D3824200F2FC80841A65EB030301201C
:1008C0009846002EE2D0C6E90048DFE702B9FFDE15
:1008D000B2FA82F2002A40F09180A1EB0C000121D3
:1008E0004FEA1C471FFA8CFEB0FBF7F307FB13001F
:1008F000250C45EA00450EFB03F0A84208D91CEB85
:10090000050503F1FF3802D2A84200F2CE8043462B
:100910002D1AB5FBF7F007FB10550EFB00FEA4B235
:1009200044EA0544A64508D91CEB040400F1FF3550
:1009300002D2A64500F2B6802846A4EB0E0440EA97
:1009400003409EE7C1F120078B4022FA07FC4CEAE6
:10095000030C25FA07FA4FEA1C49BAFBF9F820FA0A
:1009600007F309FB18AA8D401FFA8CFE1D4300FAFD
:1009700001F308FB0EF02C0C44EA0A44A04202FAF0
:1009800001F20BD91CEB040408F1FF3A80F08880D7
:10099000A04240F28580A8F102086444241AB4FB06
:1009A000F9F009FB104400FB0EFEADB245EA044429
:1009B000A64508D91CEB040400F1FF356CD2A6450E
:1009C0006AD90238644440EA0840A0FB0295A4EBCF
:1009D0000E04AC42C846AE4656D353D0002E69D062
:1009E000B3EB080264EB0E0422FA01F304FA07F7F2
:1009F0001F43CC40C6E90074002147E70CFA02FC13
:100A0000C2F1200125FA01F34FEA1C4720FA01F157
:100A100095400D43B3FBF7F107FB11331FFA8CFE32
:100A2000280C40EA034001FB0EF3834204FA02F46F
:100A300008D91CEB000001F1FF382FD283422DD9D9
:100A400002396044C01AB0FBF7F307FB1300ADB2E4
:100A500045EA004503FB0EF0A84208D91CEB05054A
:100A600003F1FF3816D2A84214D9023B6544281A74
:100A700043EA014138E73146304607E72F46E4E6CE
:100A80001846F9E64B45A9D2B9EB020865EB0C0E06
:100A90000138A3E74346EAE7284694E74146D1E711
:100AA000D0467BE76444023847E7023B65442FE7C2
:100AB000084606E73146E9E6704700BF844641EA4A
:100AC000000313F0030349D1403A23D30B680360BA
:100AD0004B6843608B688360CB68C3600B690361BC
:100AE0004B6943618B698361CB69C3610B6A0362A4
:100AF0004B6A43628B6A8362CB6AC3620B6B03638C
:100B00004B6B43638B6B8363CB6BC3634030403170
:100B1000403ADBD230320BD30B6803604B68436042
:100B20008B688360CB68C36010301031103AF3D209
:100B30000C3205D351F8043B40F8043B043AF9D297
:100B4000043208D0D2071CBF11F8013B00F8013B6A
:100B500001D30B8803806046704700BF082A13D377
:100B60008B07B1D010F00303AED0C3F10403D21A47
:100B7000DB071CBF11F8013B00F8013BA4D331F89F
:100B8000023B20F8023B9FE7043AD9D3013A11F81F
:100B9000013B00F8013BF9D20B7803704B784370AE
:100BA0008B7883706046704710B588B002A905A89D
:100BB00002F030F8032802D0012008B010BD01A8CF
:100BC00001F00EFB019C0598FFF75CFB2146FFF747
:100BD000ADFBFFF771FD05900698FFF753FB21462B
:100BE000FFF7A4FBFFF768FD06900798FFF74AFBA5
:100BF0002146FFF79BFBFFF75FFD079005A802F07A
:100C00003DF90DF1020001F011FBBDF80220029B3D
:100C100002FB03F30293039B02FB03F30393049B86
:100C200002FB03F3049302A802F0B0F90020C4E72A
:100C300090F90030002B01DD002070470FDB90F9A8
:100C40000130002B01DD012070470ADB90F90230F2
:100C5000002B08DC01DB07207047062070470420CA
:100C60007047052070470220704738B50546FFF7EA
:100C7000DFFF0446E81CFFF7DBFF44EAC00424B2B0
:100C8000A81DFFF7D5FF44EA801080B238BD0000F0
:100C900008B5002001F092FDC0BB782001F010FDE6
:100CA00010F0FF0F01D0012031E0782001F0ECFAC4
:100CB00010F0FF0F2CD1642001F0AAFC10F0FF0F00
:100CC00028D102F029F810F0FF0F25D11748FFF7BF
:100CD000CCFF02F02DF810F0FF0F1FD140F273107F
:100CE00002F0ECFB10F0FF0F1AD1642002F0C8F9FB
:100CF00010F0FF0F16D1FFF757FFA8B9012001F040
:100D000033FF10F0FF0002D0092000E00A2008BDE8
:100D10000220FCE70320FAE70420F8E70520F6E7C5
:100D20000620F4E70720F2E70820F0E700000020A3
:100D300010B5074C01224FF48071204603F076F87D
:100D400001224FF40071204603F070F810BD00BF7F
:100D5000000C014010B50D4C01224FF400712046EB
:100D600003F064F801224FF48071204603F05EF82E
:100D700000224FF40071204603F058F800224FF48F
:100D80008071204603F052F810BD00BF000C0140F6
:100D900010B50A4C00224FF40071204603F046F8CB
:100DA00001224FF48071204603F040F801224FF4F5
:100DB0000071204603F03AF810BD00BF000C01405E
:100DC00070B50646002416E080222241124D3240C2
:100DD0004FF40071284603F029F801224FF4807186
:100DE000284603F023F800224FF48071284603F0D0
:100DF0001DF80134E4B2072CE6D9074C01224FF468
:100E00008071204603F012F800224FF480712046D2
:100E100003F00CF870BD00BF000C014010B5044693
:100E2000FFF798FF7820FFF7CBFF0020FFF7C8FF00
:100E30002046FFF7C5FFFFF7ABFF10BD10B5044616
:100E4000FFF788FF7820FFF7BBFF4020FFF7B8FFD0
:100E50002046FFF7B5FFFFF79BFF10BD10B50C460E
:100E600040F0B000FFF7DAFF200940F01000FFF774
:100E7000D5FF04F00F00FFF7D1FF10BD38B50025F6
:100E800009E00020FFF7DAFF0134E4B214F0800F2C
:100E9000F7D00135EDB2072D05D800212846FFF720
:100EA000DDFF0024F2E738BDF8B51546461E760092
:100EB000F6B24F1EFF00FFB239463046FFF7CEFFB5
:100EC000002409E0A5F120030F4A02EB0313185D8B
:100ED000FFF7B4FF0134E4B2072CF3D9701C394694
:100EE000C0B2FFF7BBFF00240BE0A5F1200304F123
:100EF0000802054901EB0313985CFFF79FFF0134DB
:100F0000E4B2072CF1D9F8BD9C8500080246012007
:100F100002E002FB00F019464B1E0029F9D1704790
:100F20002DE9F8438146884617461E46002419E0FD
:100F300004EB0805EDB2311B01390A20FFF7E6FF8B
:100F4000B7FBF0F0094AA2FB0032D20802EB8202A2
:100F5000A0EB42023032D2B229464846FFF7A4FF46
:100F60000134E4B2B442E3D3BDE8F883CDCCCCCCB9
:100F70002DE9F04180460F4616461D46002407E045
:100F8000E1193732C9B24046FFF78EFF0134E4B2AF
:100F9000AC4211D2291B01391020FFF7B7FFB6FB75
:100FA000F0F202F00F02092AEAD8E1193032C9B290
:100FB0004046FFF779FFE9E7BDE8F08108B5002278
:100FC00004E00133B3F57A7FFBD30132B2F57A7FC7
:100FD00001D20023F6E7FFF7ABFEAE20FFF71EFFBE
:100FE000D520FFF71BFF8020FFF718FFA820FFF791
:100FF00015FF3F20FFF712FFD320FFF70FFF002060
:10100000FFF70CFF4020FFF709FFA120FFF706FFC5
:10101000C820FFF703FFDA20FFF700FF1220FFF7D9
:10102000FDFE8120FFF7FAFECF20FFF7F7FED92063
:10103000FFF7F4FEF120FFF7F1FEDB20FFF7EEFEF5
:101040003020FFF7EBFEA420FFF7E8FEA620FFF715
:10105000E5FE8D20FFF7E2FE1420FFF7DFFEAF2054
:10106000FFF7DCFEFFF70AFF08BD000008B50BE044
:1010700001210B4B186804F03AFF0A4B00221A803A
:101080004FF47A7004F0D8FC0821074802F0D4FE2F
:10109000044A138801339BB21380052BE8D0EFE795
:1010A000A40800209C080020000C014008B5104C4A
:1010B00023680133236000230A2221460D4800687B
:1010C00005F0CEFB0C4D4FF0FF31286805F020FEF7
:1010D0000423226801210846FFF722FF00231A4655
:1010E0001946286805F0BCFB012004F0A5FCDEE7EA
:1010F00098080020AC080020A808002000B583B0A4
:101100000A2201A90C4B186805F053FD0B4C4FF057
:10111000FF31206805F0FCFD0423019A0121022023
:10112000FFF7FEFE00231A461946206805F098FBDB
:10113000012004F081FCE3E7AC080020A8080020AF
:1011400038B521E0164D0A222946164B186805F0DD
:1011500030FD154C0A21206805F0DAFD04232A78B9
:1011600001210320FFF704FF0423104A1268012124
:101170001846FFF7D5FE00231A461946206805F0E9
:101180006FFB012004F058FC084A13680133136018
:101190000A21074B186805F0BBFD0128D2D0F0E703
:1011A0008808002090080020A8080020940800204B
:1011B0008C08002000B583B04FF0FF33009301236B
:1011C0001A4619460548006804F00DFE102104482F
:1011D00002F032FE012004F02FFCEDE7A40800200D
:1011E000000C014008B5214804F07CFC204B18603D
:1011F000204A0021012004F0D3FC1F4B18601F4A35
:101200000421032004F038FD1D4B18601D4A012104
:10121000022004F031FD1C4B18601C4A00211C48C0
:1012200004F092FB1B4B18601B4A00211B4804F082
:101230008BFB1B4B18601B4A00211B4804F084FBEE
:101240001A4B18601A4A00211A4804F07DFB1A4B09
:1012500018601A4A00211A4804F076FB194B1860EE
:10126000194804F00BFC194B186008BD5C8C000891
:10127000A8080020008C00088C0800206C8C000856
:10128000AC080020108C000890080020288C000872
:101290006D100008A0080020848C0008AD10000824
:1012A000B0080020A88C0008FD100008B408002039
:1012B000CC8C000841110008B8080020F08C000810
:1012C000B5110008BC0800204C8C0008A4080020C0
:1012D00038B50C4B834200D038BD0B4D00231C4663
:1012E0001A4629460948006805F0A4FB0122294650
:1012F000044804F0CEFA2146054B186805F000FCBE
:10130000EAE700BF78090020C0080020900800200C
:101310008C0800202DE9F04188B000240494059445
:1013200006940794294B9A6942F020029A619A69BF
:1013300002F020020192019A9A6942F004029A6135
:101340009A6902F004020292029A9A6942F0080233
:101350009A619B6903F008030393039BDFF8708095
:1013600001224FF48051404602F060FD194D0122E8
:101370001821284602F05AFD22464FF440712846B3
:1013800002F054FD4FF4805304930127059706940F
:101390000326079604A9404602F036FC182304935E
:1013A00005970694079604A9284602F02DFC4FF4F1
:1013B00040730493112305930694079604A92846C5
:1013C00002F022FC08B0BDE8F08100BF001002402E
:1013D00000080140000C014008B50B480B4B0360AE
:1013E0000B4B436000238360C3604FF48042026173
:1013F00043618361C361036202F0B2FF00B908BDBB
:1014000002F074F9FBE700BFC4080020005400405C
:10141000801A060010B586B000230293039304934C
:1014200005930268114B9A4201D006B010BD104CD2
:10143000A36943F00803A361A36903F008030093C1
:10144000009BC0230293122303930323059302A955
:10145000084802F0D9FBE36943F40013E361E36950
:1014600003F400130193019BDFE700BF0054004029
:1014700000100240000C0140F0B587B007462F4B2A
:101480005B681978022302930423019305AB009350
:1014900001230D222A4803F0F3F800284BD104461B
:1014A0009DF81420D21002F01C029DF81710C1F311
:1014B00001131A438DF810209DF81520D21002F068
:1014C0001C02C1F381031A438DF811209DF81630D8
:1014D000DB1003F01C0301F003010B438DF8123005
:1014E00018E007EB8405174B47F8243004E0164951
:1014F0002868FEF71BFF286006F118030DEB0302B6
:1015000012F8083C013BDBB202F8083C002BEED19C
:101510000134E4B2022C0BD8264604F118036B44C4
:1015200013F8083C002BDCD1002347F82430EFE708
:10153000002007B0F0BD0720FBE700BF0C00002033
:10154000C40800207B14AE3E1D5A843F2DE9F043B1
:1015500085B08146884601A8FFF78EFF00273C46EC
:1015600010E005F1004539E023493046FFF77CF8EB
:1015700020B922493046FFF795F810B10123A34066
:101580001F430134022C33DCA50059F8240058F81D
:101590002430C01A0028B8BF4042FEF773FE4FF057
:1015A0005E51FEF7C3FE064605F110030DEB030581
:1015B00055F80C5C00212846FFF74CF80028D3D1E1
:1015C00029463046FEF766FF4FF07E51FEF7A4FD38
:1015D00005460021FFF766F80028C2D008492846D2
:1015E000FFF760F80028CCD00123A3401F43C8E7D1
:1015F000384605B0BDE8F0839A99993E3333733F7E
:10160000295C0F3E2DE9F04186B0074688463E4BE7
:101610005B681978022302930323019305AB0093BF
:1016200001230D22394803F02BF8002866D19DF8DC
:10163000143003F01F038DF814309DF8153003F0BB
:101640001F038DF815309DF8163003F01F038DF839
:101650001630002634462DE02D49FEF767FE04F1D2
:1016600018030DEB030212F8043C013BDBB202F855
:10167000043C002BF0D101462846FEF70BFF4FF04B
:101680007E51FEF749FD05460021FFF70BF850B1EA
:1016900020492846FFF706F858B10123A3401E430E
:1016A00007E01D48DBE705F10045F1E70123A34012
:1016B0001E430134022C22DC57F8240058F8243051
:1016C000C01A0028B8BF4042FEF7DCFD4FF05E5163
:1016D000FEF72CFE054604F118036B4413F8043C96
:1016E000002BDED10D49FEF7BFFF0028DED10C49EB
:1016F0002846FEF7D7FF0028DBD0D7E7072630467D
:1017000006B0BDE8F08100BF0C000020C408002036
:1017100054E3853F295C0F3E0000C8410000204192
:101720000000D24200B587B0284B93F82430F3B1C3
:10173000C8B102238DF81730244B59681B685A7CB6
:10174000097802230293012301930DF11700009001
:101750001F4802F0E3FE70BB9DF817201B4B5A7424
:1017600007B05DF804FB00238DF81730E4E7174B52
:101770009B7A1BB310B1154B5B7C13BBB8B1012333
:101780008DF81730114B59681B685A7C0978022371
:101790000293012301930DF1170000900C4802F011
:1017A000BDFE80B99DF81720084B5A74D8E7002376
:1017B0008DF81730E6E74FF0FF30D1E74FF0FF30FC
:1017C000CEE70020CCE74FF0FF30C9E70C00002047
:1017D000C4080020F0B58DB005460C46164601231E
:1017E0008DF8243000228DF82520A24A5168126815
:1017F000527D097802200290019009A800909E482D
:1018000002F08CFE002840F01E82C82002F020F971
:1018100000238DF82430974B59681B685A7C09784F
:10182000022302930123019309A80090924802F039
:1018300075FE002840F00A828E4B59681B685A7961
:101840000978022302930123019309A800908A4892
:1018500002F064FE002840F0FC81864B59681B684A
:101860005A7D0978022302930123019309A800906D
:10187000814802F053FE002840F0EE817D4B59680C
:101880001B689A7E0978022302930123019309A819
:101890000090794802F042FE002840F0E081754B4C
:1018A00059681B681A79097802230293012301936E
:1018B00009A80090704802F031FE002840F0D28163
:1018C0000C238DF824306B4B59681B681A79097802
:1018D000022302930123019309A80090664802F0B5
:1018E0001DFE002840F0C1810F2002F0B1F8614BCD
:1018F0009A6A527A8DF8242059681B689A78097878
:10190000022302930123019309A800905A4802F090
:1019100005FE002840F0AC81564B9A6A127A8DF889
:10192000242059681B685A780978022302930123FE
:10193000019309A80090504802F0F0FD002840F003
:101940009A81002E00F0A0804A4B9B6A9B7A63F03C
:101950001F038DF82430474B59681B689A79097822
:10196000022302930123019309A80090424802F048
:10197000D5FD002840F08281002E00F08B803D4B89
:101980009B6ADB7A63F01F038DF82430394B59686A
:101990001B68DA790978022302930123019309A8CD
:1019A0000090354802F0BAFD002840F06A81002E10
:1019B00074D140238DF824302E4B59681B681A7956
:1019C0000978022302930123019309A800902A4871
:1019D00002F0A4FD002840F0578178238DF82430D0
:1019E000244B59681B685A79097802230293012312
:1019F000019309A80090204802F090FD002840F0D3
:101A00004681322002F024F800238DF82430194B4F
:101A100059681B685A7909780223029301230193BC
:101A200009A80090144802F079FD002840F03281A6
:101A3000104B59681B681A7B0978022302930193A3
:101A400009AB009301230C4802F01AFE0646002859
:101A500040F023819DF824309DF8257047EA032744
:101A6000064BA3FB0737C7F3C7070023AB606B60C8
:101A70002B6005E00C000020C4080020ABAAAAAA35
:101A8000A3606360236057E0854B9B6A9B7A8DF867
:101A9000243060E718238DF8243077E7C82001F060
:101AA000D7FF86E79DF824309DF8251041EA0321F1
:101AB00009B2ADF814109DF826309DF8272042EAAF
:101AC000032212B2ADF816209DF828009DF82930A7
:101AD00043EA00231BB2ADF81830206801442160AE
:101AE00061680A446260A2681344A3609DF82A30CA
:101AF0009DF82B1041EA032109B2ADF81C109DF8A6
:101B00002C309DF82D2042EA032212B2ADF81E209F
:101B10009DF82E009DF82F3043EA00231BB2ADF84C
:101B2000203028680144296069680A446A60AA680C
:101B30001344AB600136F6B2BE4214D2584B59681A
:101B40001B685A7B0978022302930C23019309AB8B
:101B500000930123534802F093FD0028A2D04FF0D8
:101B6000FF300DB0F0BD296883220023080409145A
:101B7000FEF7E8FD00263A463346FEF7E3FD28600F
:101B800069688322002308040914FEF7DBFD3A4646
:101B90003346FEF7D7FD6860A96883220023080456
:101BA0000914FEF7CFFD3A463346FEF7CBFDA86099
:101BB0002068031400041946B3422DDBC00A3A46DC
:101BC000334640EA4150C912FEF7BCFD2060606810
:101BD000031400041946002B24DBC00A3A4633469E
:101BE00040EA4150C912FEF7ADFD6060A0680314E1
:101BF00000041946002B1BDBC00A3A46334640EA74
:101C00004150C912FEF79EFDA060002816DDA0F528
:101C10008030A0600020A4E740F2FF72801843F1FA
:101C20000001CBE740F2FF72801843F10001D4E7D6
:101C300040F2FF72801843F10001DDE700F58030CB
:101C4000A06000208DE74FF0FF308AE74FF0FF30B3
:101C500087E74FF0FF3084E74FF0FF3081E74FF028
:101C6000FF307EE74FF0FF307BE74FF0FF3078E743
:101C70004FF0FF3075E74FF0FF3072E74FF0FF3065
:101C80006FE74FF0FF306CE74FF0FF3069E74FF040
:101C9000FF3066E74FF0FF3063E74FF0FF3060E75B
:101CA0000C000020C40800209A4B9B7A002B00F007
:101CB0000F8100B587B000238DF81730954B596818
:101CC0001B685A7C097802230293012301930DF1CA
:101CD00017000090904802F021FC002840F0FB80A3
:101CE0008C4B59681B685A790978022302930123A7
:101CF00001930DF117000090874802F00FFC0028B7
:101D000040F0EC80834B59681B681A7909780223EC
:101D10000293012301930DF1170000907E4802F019
:101D2000FDFB002840F0DD807A4B93F82430002B37
:101D300069D00C238DF81730764B59681B681A79D7
:101D4000097802230293012301930DF117000090FB
:101D5000714802F0E3FB002840F0C680322001F019
:101D600077FEC0238DF817306A4B9B7A13F0010F72
:101D700002D0E0238DF81730664B59681B681A793A
:101D8000097802230293012301930DF117000090BB
:101D9000614802F0C3FB002840F0A9805D4B5B7CEA
:101DA000002B2CD002238DF817305A4B59681B6832
:101DB0005A7C097802230293012301930DF1170045
:101DC0000090554802F0AAFB002840F093800023C1
:101DD0008DF817304F4B59681B685A7909780223E0
:101DE0000293012301930DF1170000904A4802F07D
:101DF00095FB002840F0818007B05DF804FB0023CC
:101E00008DF81730D1E704238DF81730414B59680E
:101E10001B681A79097802230293012301930DF1BB
:101E2000170000903C4802F079FB002868D1394B3C
:101E30009B7C23B9374B9B7A13F0010F40D1402391
:101E40008DF81730334B59681B681A7909780223CB
:101E50000293012301930DF1170000902E4802F028
:101E60005DFB00284FD1322001F0F2FD294B5B7C55
:101E700053B301238DF81730264B59681B685A7CE1
:101E8000097802230293012301930DF117000090BA
:101E9000214802F043FB002838D11E48436850F81F
:101EA000102B527919780223029301230193009099
:101EB000194802F033FB00289ED04FF0FF309BE71B
:101EC00060238DF81730BDE700238DF81730D3E776
:101ED0004FF0FF3070474FF0FF308DE74FF0FF308D
:101EE0008AE74FF0FF3087E74FF0FF3084E74FF08D
:101EF000FF3081E74FF0FF307EE74FF0FF307BE7A8
:101F00004FF0FF3078E74FF0FF3075E74FF0FF30CC
:101F100072E700BF0C000020C40800200D4B1B7AA4
:101F2000032B13D8DFE803F002060A0EFA2303801E
:101F3000002070474FF4FA730380F9E74FF47A7387
:101F40000380F5E74FF4FA630380F1E70023038091
:101F5000EEE700BF0C000020264B9B7A002B41D0FF
:101F600000B587B0B0F57A7F38D00BD8FA2813D0F7
:101F7000B0F5FA7F03D108238DF817300FE04FF04A
:101F8000FF3028E0B0F5FA6F03D118238DF8173031
:101F900005E04FF0FF301EE000238DF81730154BA1
:101FA0001B7A9DF81720B3EBD20F1ED0114B596846
:101FB0001B689A79097802230293012301930DF19A
:101FC000170000900C4802F0A9FA80B99DF817306C
:101FD000DB08084A137207B05DF804FB10238DF884
:101FE0001730DCE74FF0FF3070470020F3E74FF089
:101FF000FF30F0E70C000020C40800200F4B5B7A94
:10200000032B16D8DFE803F0020C0F120223037033
:102010000A4BDB7C83B103785B00037000207047C0
:1020200004230370F4E708230370F1E7102303701F
:10203000EEE74FF0FF307047002070470C000020A3
:10204000254B9B7A002B3AD000B587B002380E287A
:1020500038D8DFE800F00837283737372C373737DC
:1020600037373737300000238DF817301A4B5B7A3B
:102070009DF81720B3EBD20F29D0174B59681B6876
:10208000DA79097802230293012301930DF11700F5
:102090000090124802F042FAD8B99DF81730DB08D8
:1020A0000D4A537210E008238DF81730DEE7102335
:1020B0008DF81730DAE718238DF81730D6E74FF090
:1020C000FF3070474FF0FF3007B05DF804FB002091
:1020D000FAE74FF0FF30F7E70C000020C4080020BB
:1020E0000F4BDB7A013B052B17D8DFE803F0030722
:1020F0000A0D1013BC230380002070476223038065
:10210000FAE72A230380F7E714230380F4E70A237E
:102110000380F1E705230380EEE700230380EBE76C
:102120000C000020254B9B7A002B3FD000B587B0D8
:10213000BB281FD901238DF81730204BDA7A9DF880
:1021400017309A4235D01D4B59681B689A78097828
:1021500002230293012301930DF117000090184808
:1021600002F0DCF938BB9DF81720144BDA7207B087
:102170005DF804FB612803D902238DF81730DCE7F2
:10218000292803D903238DF81730D6E7132803D95C
:1021900004238DF81730D0E7092803D905238DF8DB
:1021A0001730CAE706238DF81730C6E74FF0FF3027
:1021B00070470020DBE74FF0FF30D8E70C0000202D
:1021C000C4080020054B93F8243023B9034BDB8966
:1021D0000380002070474FF0FF3070470C00002054
:1021E0000D4B1B7A032B13D8DFE803F002060A0E0F
:1021F0000A4B036000207047094B036000207047C2
:10220000084B036000207047074B036000207047B5
:102210004FF0FF30704700BF0C0000200000034368
:10222000000083423333034233338341114B5B7AE3
:10223000032B1AD8DFE803F0020D11154FF4804389
:1022400003800C4BDB7C9BB103885B080380002080
:10225000704741F69C730380F3E74FF4805303808B
:10226000EFE74FF400630380EBE74FF0FF30704778
:10227000002070470C000020024B1B7C03700020E4
:10228000704700BF0C00002070B5174B93F8243046
:102290002BBB00F0FE04144B9B7A13B3124A167C3E
:1022A00023401374A3420BD04FF0FF3514B90E4BEB
:1022B0001B7D3BB10120FFF735FA3CB9284670BDC4
:1022C0000025F3E70020FFF72DFAF6E7FFF7ECFC17
:1022D0000028F3D0044B1E744FF0FF35EEE70025C5
:1022E000ECE74FF0FF35E9E70C000020684B9B7CE2
:1022F000834200F0BB8010B586B00446002854D05D
:10230000634B59681B681A790978022302930123E9
:1023100001930DF1170000905E4802F0B1F900281A
:1023200040F0A6809DF8173023F020038DF8173079
:10233000574B59681B681A790978022302930123C5
:1023400001930DF117000090524802F0E7F80028C1
:1023500040F09180032001F07BFB02238DF81730C1
:102360004B4B93F8223013B182238DF81730484B32
:1023700093F823302BB19DF8173043F030038DF8DC
:102380001730434B59681B68DA7D097802230293A2
:10239000012301930DF1170000903E4802F0BEF8B2
:1023A000002853D04FF0FF3053E0394B59681B6879
:1023B0001A79097802230293012301930DF1170082
:1023C0000090344802F05CF9002857D1304B9B7ADA
:1023D00013F0010F3FD09DF8173043F020038DF824
:1023E00017302B4B59681B681A790978022302931E
:1023F000012301930DF117000090264802F08EF89A
:1024000000283ED1032001F023FB214B93F822301A
:1024100043B380238DF817301D4B93F823302BB135
:102420009DF8173043F030038DF81730184B59687A
:102430001B68DA7D097802230293012301930DF1D1
:1024400017000090134802F069F8E8B9104B9C742B
:10245000002006B010BD9DF8173023F020038DF842
:102460001730BEE700238DF81730D5E700207047FE
:102470004FF0FF30EDE74FF0FF30EAE74FF0FF306D
:10248000E7E74FF0FF30E4E74FF0FF30E1E700BF50
:102490000C000020C40800201E4B93F82330834218
:1024A00032D010B586B0044650B330238DF81730C3
:1024B000184B9B7C2BB19DF8173043F002038DF82D
:1024C0001730144B93F822302BB19DF8173063F07E
:1024D0007F038DF817300F4B59681B68DA7D097838
:1024E00002230293012301930DF1170000900A4883
:1024F00002F014F850B9074B83F8234006B010BD22
:1025000000238DF81730D3E7002070474FF0FF30DD
:10251000F4E700BF0C000020C4080020282869D878
:1025200010B586B00446E0B90020FFF7B5FF0023E0
:102530008DF8143007238DF81530334B59681B681C
:102540005A7D097802230293019305AB009301237E
:102550002E4801F0E3FF00284FD12B4B187506B031
:1025600010BD0120FFF798FF20238DF81430012CB7
:102570002BD0052C30D9142C35D802238DF81530EA
:102580000A20FFF7CFFD9DF815309B0143F00703AC
:102590008DF815301C4B59681B685A7D0978022349
:1025A0000293019305AB00930123184801F0B6FF95
:1025B00030BB154B08229A7200241C7301221A7535
:1025C0002046FFF761FE2046C9E700238DF815304D
:1025D0000520FFF7A7FDD6E701238DF8153005206C
:1025E000FFF7A0FDCFE703238DF815301420FFF788
:1025F00099FDC8E74FF0FF3070474FF0FF30AEE76E
:102600004FF0FF30ABE700BF0C000020C4080020F3
:10261000294B9B7A002B45D010B586B00446264B3B
:1026200093F82430002B40D1234B1B7D33B1431E44
:102630009BB2272B0AD90020FFF770FF032C0AD981
:10264000B4F57A7F08D94FF47A7405E0C0B2FFF789
:1026500065FF002024E004244FF47A7090FBF4F42A
:10266000013C8DF81740144B59681B685A7809785B
:1026700002230293012301930DF1170000900F48EC
:1026800001F04CFFA0B99DF81700431C4FF47A707D
:1026900090FBF3F0084BD8814008FFF743FD002082
:1026A00006B010BD4FF0FF3070474FF0FF30F7E736
:1026B0004FF0FF30F4E700BF0C000020C4080020FA
:1026C00010B586B0044610F0700F5AD001238DF873
:1026D0001730384B59681B685A7D097802230293DA
:1026E000012301930DF117000090334801F016FF0C
:1026F00000284FD19DF8173003F0BF032D4A137304
:1027000000238DF8173014F0400F02D104238DF808
:10271000173014F0200F05D19DF8173043F0020355
:102720008DF8173014F0100F05D19DF8173043F0D5
:1027300001038DF8173014F0080F05D19DF81730FC
:1027400043F038038DF817301A4B59681B689A7D8F
:10275000097802230293012301930DF117000090E1
:10276000154801F0DBFED8B90CB1082C1ED1114B75
:102770009C7200241C75322001F06AF9204606B0D4
:1027800010BD18B100238DF81730A2E740238DF853
:1027900017309EE7074B00229A724FF0FF30EEE7AA
:1027A000044B00229A724FF0FF30E8E70020FFF759
:1027B00073FEDCE70C000020C408002010B586B0D2
:1027C00080238DF810306D4B59681B685A7D09784D
:1027D000022302930123019304A80090684801F0AA
:1027E0009DFE002840F0A580642001F031F900230F
:1027F0008DF81030614B59681B685A7D09780223A7
:1028000002930123019304A800905D4801F086FE25
:10281000002840F09180594B59681B685A7E09780E
:10282000022302930623019304AB0093012354482F
:1028300001F026FF002840F082809DF815309B00B3
:1028400003F004039DF81320520002F00202134328
:102850009DF9112002F0010213434CD0012B46D008
:10286000022B6FD1454B0022DA74444BFF229A723F
:102870001A725A72DA724FF6FF71D9811A749A7409
:1028800001221A7383F82220002283F823205A752C
:102890001A75C3F81620C3F81A20C3F81E2083F84F
:1028A000242083F82520DA844FF4FA60FFF754FBE4
:1028B000002850D10220FFF7C3FB00284ED12A2068
:1028C000FFF730FC00284CD13220FFF7A1FE002892
:1028D0004AD1FFF7D9FC002849D1FFF707FD04468C
:1028E000002847D1FFF7ECFE204606B010BD234B71
:1028F0000122DA74B9E7214B59681B68DA78097844
:10290000022302930123019304A800901C4801F0C4
:10291000B7FED0B99DF8103013F00F0318D0042B78
:1029200003D0164B0022DA749FE7144B0122DA74AD
:102930009BE74FF0FF34D7E74FF0FF34D4E74FF079
:10294000FF34D1E74FF0FF34CEE74FF0FF34CBE751
:102950004FF0FF34C8E74FF0FF34C5E74FF0FF34C6
:10296000C2E74FF0FF34BFE74FF0FF34BCE74FF052
:10297000FF34B9E74FF0FF34B6E700BF0C0000208A
:10298000C4080020002A31D030B587B00C46154667
:102990001E4B9B7A002B2CD0030A8DF81430C0B24A
:1029A0008DF815000844194B5B685A89904223DC66
:1029B000164A1268D27E197802230293019305AB5E
:1029C00000930123124801F0A9FDC0B90F4B5968CB
:1029D0001B681A7E09780223029301940095012353
:1029E0000B4801F09BFD68B907B030BD4FF0FF30D8
:1029F00070474FF0FF30F7E74FF0FF30F4E74FF04C
:102A0000FF30F1E74FF0FF30EEE700BF0C00002091
:102A1000C4080020002A31D030B587B00C461546D6
:102A20001E4B9B7A002B2CD0030A8DF81430C0B2B9
:102A30008DF815000844194B5B685A89904223DCD5
:102A4000164A1268D27E197802230293019305ABCD
:102A500000930123124801F061FDC0B90F4B596882
:102A60001B681A7E097802230293019400950123C2
:102A70000B4801F005FE68B907B030BD4FF0FF30DC
:102A800070474FF0FF30F7E74FF0FF30F4E74FF0BB
:102A9000FF30F1E74FF0FF30EEE700BF0C00002001
:102AA000C40800202DE9F04F8BB09A462C4B93F8C8
:102AB0002530002B42D1074688469146002940D058
:102AC0000024BC421CD23E1B102EA8BF1026B5B25B
:102AD00008EB040B5A4629462046FFF753FF00280F
:102AE00032D106AA29462046FFF794FF78BB2A4632
:102AF00006A9584605F0E2FA60BB2C44A4B2E0E710
:102B00004FEA19238DF814308DF81590144B59683D
:102B10001B685A7F097802230293019305AB009347
:102B20000123104801F0FAFCB8B90D4B012283F8DB
:102B30002520A3F826A00BB0BDE8F08F4FF0FF30A2
:102B4000F9E74FF0FF30F6E74FF0FF30F3E74FF0D3
:102B5000FF30F0E76FF00100EDE74FF0FF30EAE7FC
:102B60000C000020C4080020284B93F82430834236
:102B700047D070B586B048B3244B93F82530002B6E
:102B800041D00020FEF7CEFD0020FFF7AFFB1F4E27
:102B9000F08CFFF73DFD00248DF81740736819781D
:102BA00002230293012501950DF1170300932B4693
:102BB0002322174801F0B2FC86F824502846FEF77D
:102BC000B1FDFFF771F8204606B070BD0020FEF79A
:102BD000A9FD0E4D2B7C8DF817306B6819780223F8
:102BE0000293012301930DF117020092232208485A
:102BF00001F094FC002485F82440FFF755F82046A6
:102C0000E2E7002070474FF0FF30DDE70C000020C6
:102C1000C40800202DE9F04188B005460E463D4B22
:102C200093F82470FFB901A8FFF778F90DF10700B8
:102C3000FFF7E4F96846FFF753FA0DF10200FFF7DA
:102C4000C1FA344B93F80A800DF10600FFF714FB2C
:102C50000024012C0CDC002231462846FEF7BAFD88
:102C600030B10134F5E70020FFF77EFF0127DAE7F6
:102C7000022C1FD00024012C07DC012202A905A888
:102C8000FEF7A8FD08B10134F5E7022C14D002A923
:102C90003046FEF75BFCC6B205A92846FEF7B2FC3B
:102CA00010F0FF0F04D000243EB944F0020404E009
:102CB0000124F9E7002400E00024164BFF221A72D9
:102CC0005A72DA724FF6FF71D9819A721A74012220
:102CD0001A73BDF80400FFF73FF99DF80700FFF7EE
:102CE000AFF9BDF80000FFF71DFABDF80200FFF7CD
:102CF0008FFC4046FFF7E4FC9DF80600FFF7C4FA9E
:102D00001FB9204608B0BDE8F0810120FFF72CFF75
:102D1000F7E700BF0C00002008B5C8234FF480621D
:102D2000024940F6F630FFF7BDFE08BDA08D000851
:102D300010B586B004464C4B1B68ADF80C301B0C2C
:102D40008DF80E30494B1B68ADF808301B0C8DF820
:102D50000A30474B1B68ADF804301B0C8DF8063069
:102D6000444B1B68ADF800301B0C8DF8023000F0AE
:102D7000030101F118030DEB030111F80C3C8DF870
:102D80001430C0F3C10202F118030DEB030212F874
:102D90000C3C8DF81530C0F3811318336B4413F8D5
:102DA0000C0C8DF8160011F8101C8DF8101012F88C
:102DB000102C8DF8112013F8103C8DF8123005AA54
:102DC000032140F22640FFF7DDFD002840D104AA90
:102DD000032140F22A40FFF7D5FD00283BD1019B9B
:102DE000ADF814301B0C8DF81630009BADF8103088
:102DF0001B0C8DF8123014F0040F05D037238DF81A
:102E0000143027238DF8103014F0200F05D05723ED
:102E10008DF8153047238DF8113014F4807F05D0DC
:102E200077238DF8163067238DF8123005AA032119
:102E30004FF48860FFF7A6FD80B904AA032140F291
:102E40003140FFF79FFD60B90B4B1C8106B010BDF0
:102E50004FF0FF30FAE74FF0FF30F7E74FF0FF3069
:102E6000F4E74FF0FF30F1E7688D00086C8D000843
:102E7000708D0008748D00081809002030B585B0E9
:102E8000404B1B8903F0030250F82220019213F0FB
:102E9000040F01D052420192C3F3C10250F8222024
:102EA000029213F0200F01D052420292C3F381121A
:102EB00050F82220039213F4807F01D052420392F3
:102EC000019BD817304AA3FB023102FB00119B0F74
:102ED00043EA810301930299C817A1FB021502FB83
:102EE0000055890F41EA85050295039CE017A4FB74
:102EF000024102FB0012A40F44EA820403941A0E5A
:102F00008DF80020C3F307428DF80120C3F3072298
:102F10008DF802208DF803306A4604214FF4747056
:102F2000FFF730FD40BB2B0E8DF80030C5F3074393
:102F30008DF80130C5F307238DF802308DF803506A
:102F40006A4604214FF47570FFF71CFDB8B9230ED3
:102F50008DF80030C4F307438DF80130C4F3072324
:102F60008DF802308DF803406A4604214FF47670E4
:102F7000FFF708FD05B030BD4FF0FF30FAE74FF026
:102F8000FF30F7E71809002009E3CA0210B588B03E
:102F900004460DF10600FFF749F9BDF806C04FEAF7
:102FA000CC3C364B1A8902F0030354F823300593C6
:102FB00012F0040F01D05B420593C2F3C10354F831
:102FC0002330069312F0200F01D05B420693C2F328
:102FD000811354F82330079312F4807F01D05B42B1
:102FE00007930599CA17A1FB0C130CFB0233890F39
:102FF00041EA83010591069AD017A2FB0C230CFB32
:103000000033920F42EA83020692079BDC17A3FB70
:103010000C300CFB040C9B0F43EA8C030793080E47
:103020008DF80800C1F307408DF80900C1F30720AF
:103030008DF80A008DF80B10110E8DF80C10C2F3EC
:1030400007418DF80D10C2F307218DF80E108DF891
:103050000F201A0E8DF81020C3F307428DF81120AF
:10306000C3F307228DF812208DF8133002AA0C2129
:103070004FF42570FFF786FC08B010BD180900203A
:1030800010B586B00446164B93E8070006AB03E97B
:103090000700C82C1AD8C82393FBF4F3013B1A0E7F
:1030A0008DF804208DF8053001AA022140F2162087
:1030B000FFF768FC68B903AA0C2140F6C120FFF7AE
:1030C00061FC48B9074B9C8106B010BD4FF0FF3042
:1030D000FAE74FF0FF30F7E74FF0FF30F4E700BFBB
:1030E000788D00081809002070B582B0044610F0F1
:1030F000070F00F0AC800846B1F5C86F00F2AA8057
:10310000FDF7BCF85B49FDF7C5F905460DF1030075
:10311000FEF774FF9DF80330023B0E2B00F29D80FA
:10312000DFE803F0089B2C9B9B9B3C9B9B9B9B9B02
:103130009B9B4C004FF08D412846FDF7F7F8FDF7BB
:10314000E1FA86B24C492846FDF7F0F8FDF7DAFAC5
:1031500080B2330A8DF804308DF80560030A8DF8CB
:1031600006308DF8070014F0010F37D114F0020F6C
:1031700048D114F0040F58D1002070E04FF08C417A
:103180002846FDF7D3F8FDF7BDFA86B23B4928463D
:10319000FDF7CCF8FDF7B6FA80B2DAE74FF08B41D5
:1031A0002846FDF7C3F8FDF7ADFA86B23449284644
:1031B000FDF7BCF8FDF7A6FA80B2CAE74FF08A41E6
:1031C0002846FDF7B3F8FDF79DFA86B22D4928464B
:1031D000FDF7ACF8FDF796FA80B2BAE701AA022132
:1031E0004FF4EA70FFF7CEFB00283AD10DF106024A
:1031F00002214FF49270FFF7C5FB0028B6D04FF0C4
:10320000FF302CE001AA02214FF4EC70FFF7BAFB6B
:1032100050BB0DF1060202214FF49470FFF7B2FB90
:103220000028A6D04FF0FF3019E001AA02214FF488
:10323000EE70FFF7A7FBD0B90DF1060202214FF4A3
:103240009670FFF79FFB50B14FF0FF3007E04FF053
:10325000FF3004E04FF0FF3001E04FF0FF3002B0EC
:1032600070BD4FF0FF30FAE74FF0FF30F7E74FF057
:10327000FF30F4E700004843000040460000C0452E
:10328000000040450000C04400B583B000238DF825
:10329000073010F0010F02D030238DF8073010F006
:1032A000020F05D09DF8073043F00C038DF807306E
:1032B00010F0040F05D09DF8073043F003038DF89C
:1032C00007300DF1070201214FF4A470FFF75AFBFC
:1032D00003B05DF804FB00B583B020B103460428B9
:1032E00002D9042300E00123013B8DF807300DF1E2
:1032F0000702012140F24F10FFF744FB03B05DF8D5
:1033000004FB000000B583B0094BA3FB0030830A27
:103310008DF80430C0F387008DF8050001AA022162
:103320004FF4EF70FFF72EFB03B05DF804FB00BF16
:10333000CDCCCCCC00B583B0094BA3FB0030830AC5
:103340008DF80430C0F387008DF8050001AA022132
:103350004FF4ED70FFF716FB03B05DF804FB00BF00
:10336000CDCCCCCC00B583B00E4B83FB0023C01773
:10337000C0EBA31000FB01F10B0E8DF80430C1F37C
:1033800007438DF80530C1F307238DF806308DF81B
:10339000071001AA04214FF4AE70FFF7F3FA03B04F
:1033A0005DF804FBD34D621000B583B0084BA3FB5E
:1033B00000308308800A8DF804008DF8053001AADA
:1033C00002214FF4AD70FFF7DDFA03B05DF804FBA6
:1033D000CDCCCCCC00B583B0084BA3FB0030830828
:1033E000800A8DF804008DF8053001AA02214FF4FF
:1033F000AC70FFF7C7FA03B05DF804FBCDCCCCCCC2
:1034000000B585B068B10D4A01AB07CA03C31A7095
:1034100001AA09214FF49760FFF7B4FA05B05DF8EF
:1034200004FB074A01AB07CA03C31A7001AA0921AA
:103430004FF49760FFF7A6FAF0E700BF888D000809
:10344000948D000800B583B0B0B1C0238DF804306E
:10345000C2238DF80530C4238DF80630C6238DF8BD
:10346000073001AA042140F69820FFF78BFAFEF7F7
:103470001BFC03B05DF804FB4FF08B330193F0E7C6
:1034800000B583B0B0B120238DF8043028238DF827
:10349000053030238DF8063038238DF8073001AA27
:1034A000042140F69E20FFF76DFAFEF7FDFB03B006
:1034B0005DF804FB4FF0A3330193F0E72DE9F041F1
:1034C00084B0044602238DF80430CA238DF80530F9
:1034D000E3238DF8063009238DF8073001AA042173
:1034E0006820FFF74FFAA3238DF8043014F040084A
:1034F00000F0B080C0238DF80530C8238DF8063069
:10350000C2238DF8073014F4C07500F0AB80C423DB
:103510008DF80830CC238DF80930C6238DF80A3099
:10352000A3238DF80B308DF80C308DF80D3001AAE7
:103530000A2140F6A720FFF725FA14F0030700F050
:10354000998020238DF8043001AA012140F6B6208D
:10355000FFF718FA14F0200F00F090800120FFF719
:103560004FFFADB114F4807F00F08C80B2238DF852
:1035700004308B238DF80530B6238DF806309B235D
:103580008DF8073001AA042140F6A220FFF7FAF9CE
:1035900014F0010F00F08380F8238DF8043001AAA5
:1035A00001214FF40B60FFF7EDF9FA210720FFF737
:1035B0009BFD0720FFF768FE0120FFF78CFE6420CB
:1035C000FFF7A0FE4FF4FA70FFF7B4FEC8213F48A2
:1035D000FFF7C8FE2820FFF7E7FE0A20FFF7FAFEF4
:1035E00014F0020F65D0D9238DF8043001AA01210F
:1035F00040F23D70FFF7C6F914F0040F5DD00120D2
:10360000FFF720FF14F0100F5BD00120FFF738FF09
:103610002F4E44F008037381FEF746FB0023B3737B
:10362000B8F1000F01D00622B2731DB1284A937B76
:103630000633937314F0140F03D0254A937B103391
:1036400093731FB1224A937B04339373002004B019
:10365000BDE8F081A3238DF805308DF806308DF894
:10366000073050E7A3238DF808308DF809308DF826
:103670000A3055E7D8238DF8043065E70020FFF7BE
:10368000BFFE6EE7B0238DF8043080238DF805303F
:10369000B4238DF8063090238DF8073072E7D823D5
:1036A0008DF8043001AA01214FF40B60FFF76AF98D
:1036B00096E7D8238DF8043098E70020FFF7C2FE84
:1036C000A0E70020FFF7DCFEA2E700BF09E3CA0283
:1036D0001809002008B50268034B9A4200D008BDC3
:1036E00000F0A4F9FBE700BF0008004072B6FEE757
:1036F00000B591B02822002106A804F013FD002394
:1037000001930293039304930593012206924FF4CD
:10371000803307930A9202220D920E934FF4E01326
:103720000F9306A801F066F980B90F2301930221D7
:103730000291002303934FF480620492059301A841
:1037400001F08AFB20B911B05DF804FBFFF7CEFF52
:10375000FFF7CCFF08B500F057F9FFF7C9FFFDF7F9
:10376000D9FDFDF739FE00F0CBF8FDF727FCFDF79A
:103770008FFA01220549064802F08BF802F09CF806
:10378000FDF730FD02F0BAF8FEE700BF280900207F
:103790007809002000B583B0114B9A6942F001020C
:1037A0009A619A6902F001020092009ADA6942F085
:1037B0008052DA61DB6903F080530193019B0022A0
:1037C0000F216FF0010000F069F9064A536823F0F9
:1037D000E06343F00073536003B05DF804FB00BF87
:1037E000001002400000014030B589B00446214B72
:1037F000DA6942F00402DA61DB6903F00403019341
:10380000019B02A903A801F003FC069BCBB901F0C0
:10381000DFFB03461848A0FB03239B0C013B174822
:10382000174A026040F2E732C2604360002303613E
:103830008360836101F03CFD054630B1284609B044
:1038400030BD01F0C5FB4300E4E70C4801F000FC8B
:1038500005460028F2D11E2000F058F90F2C01D99E
:103860000125EBE7002221461E2000F017F9054B49
:103870001C60E3E70010024083DE1B432C0900209C
:103880000008004040000020FEE7FEE7FEE7FEE7FC
:10389000FEE7704708B5024801F012FC08BD00BF02
:1038A0002C09002008B5024801F094FE08BD00BFB5
:1038B0007809002010B503460C4A0D490D480068F0
:1038C00040B10C4800680344521A934206D8094A92
:1038D000136010BD0748084C0460F2E704F0C4FB15
:1038E0000C2303604FF0FF30F3E700BF00500020CF
:1038F0000004000074090020A04700207047000069
:1039000008B50A480A4B03604FF4E13343600023D3
:103910008360C36003610C2242618361C36101F073
:103920009DFD00B908BDFFF7E1FEFBE77809002027
:103930000038014030B587B000230293039304930D
:10394000059302681B4B9A4201D007B030BD03F5C6
:1039500058439A6942F480429A619A6902F480421B
:103960000092009A9A6942F004029A619B6903F0FE
:1039700004030193019B4FF400730293022303930A
:10398000032305930C4D02A9284600F03DF94FF49E
:103990008063029300240394049402A9284600F053
:1039A00033F922460521252000F078F8252000F083
:1039B000ADF8CAE70038014000080140FFF79EFF5C
:1039C0000B480C490C4A002302E0D458C45004337D
:1039D000C4188C42F9D3094A094C002301E0136052
:1039E0000432A242FBD304F045FBFFF7B3FE70475D
:1039F0000000002088080020E499000888080020C2
:103A0000A0470020FEE7000008B5074A136843F00E
:103A100010031360032000F02FF80020FFF7E4FEEE
:103A2000FFF7B8FE002008BD00200240034A1168DD
:103A3000034B1B780B441360704700BFC009002084
:103A40003C000020014B1868704700BFC0090020EF
:103A500038B50446FFF7F6FF0546B4F1FF3F02D044
:103A6000044B1B781C44FFF7EDFF401BA042FAD328
:103A700038BD00BF3C000020074AD36823F4E06350
:103A80001B041B0C000200F4E060034343F0BF631F
:103A900043F40033D360704700ED00E000B5194BEC
:103AA000DB68C3F30223C3F1070CBCF1040F28BF8A
:103AB0004FF0040C03F1040EBEF1060F18D9033BBE
:103AC0004FF0FF3E0EFA0CFC21EA0C0199400EFA71
:103AD00003F322EA0303194300280BDB0901C9B2EF
:103AE00000F1604000F5614080F800135DF804FBD0
:103AF0000023E5E700F00F000901C9B2024B195499
:103B0000F4E700BF00ED00E014ED00E0002807DB63
:103B100000F01F02400901239340024A42F820307E
:103B2000704700BF00E100E090F82130DBB2022BCB
:103B300006D004238363002380F8203001207047DF
:103B40000268136823F00E0313600268136823F001
:103B500001031360036CC16B012202FA03F34B6093
:103B600080F82120002380F820301846704700009C
:103B700008B590F82130DBB2022B03D00423836315
:103B8000012008BD0268136823F00E031360026869
:103B9000136823F0010313600368194A934214D099
:103BA000143293421FD0143293421ED014329342E7
:103BB0001ED0143293421ED01432934202D04FF0E2
:103BC000807203E04FF4801200E001220D4B5A6036
:103BD000012380F82130002380F82030436B6BB143
:103BE00098470020CDE71022F0E74FF48072EDE710
:103BF0004FF48052EAE74FF48032E7E70020C0E755
:103C0000080002400000024070B582B00024A446C3
:103C1000A6E0804DAA4210D007D97F4DAA420CD011
:103C200005F58035AA4208D013E0A5F58015AA4213
:103C300003D005F57025AA4207D18A68002A58D01A
:103C4000012A51D04361082403E0A5F58015AA425A
:103C5000F3D0BEF1FF0F4ED80646BEF1FF0F4CD891
:103C60004FEA8C0233680F25954023EA050304FAD6
:103C700002F2134333604B6813F0805F6ED0674BE2
:103C80009A6942F001029A619B6903F00103019372
:103C9000019B4FEA9C02951C614B53F825600CF088
:103CA00003039D000F23AB4026EA03065D4B9842B9
:103CB00029D003F58063984200F08E8003F580637D
:103CC000984200F08B8003F58063984219D004235A
:103CD0001AE0CC68BDE7CC680434BAE7CC68083495
:103CE000B7E7CC680C34B4E703610824B1E70024DB
:103CF000AFE70424ADE7061DAFE7ACF10802920080
:103D0000B0E7032300E00023AB4033430232444DCD
:103D100045F822304B6813F4801F61D0424A936803
:103D200043EA0E0393604B6813F4001F5ED03E4AD3
:103D3000D36843EA0E03D3604B6813F4003F5BD0B3
:103D4000394A536843EA0E0353604B6813F4803FCB
:103D500058D0354A136843EA0E0313600CF1010C86
:103D60000A6832FA0CF353D0012303FA0CF302EA87
:103D7000030E33EA0202F1D14A68122A3FF649AF34
:103D8000122A3FF666AF01A555F822F03B3C000829
:103D9000D33C0008DD3C0008EF3C0008533C000821
:103DA000533C0008533C0008533C0008533C0008B7
:103DB000533C0008533C0008533C0008533C0008A7
:103DC000533C0008533C0008533C0008533C000897
:103DD000D73C0008E33C0008012395E7022393E762
:103DE000114A936823EA0E0393609CE70E4AD36856
:103DF00023EA0E03D3609FE70B4A536823EA0E03BE
:103E00005360A2E7084A136823EA0E031360A5E78C
:103E100002B070BD000022100000311000100240FE
:103E20000000014000080140000401400AB10161A6
:103E30007047090401617047C36801EA030221EA7F
:103E4000030141EA02410161704703685A6912F4B3
:103E5000806F01D1002070476FF480625A610023A7
:103E60000363202280F83D2080F83E30026C42F04F
:103E70000402026480F83C30012070472DE9F041D3
:103E800006460C46174698463BE0FFF7DBFD069BCF
:103E9000C01A404502D8B8F1000F32D1012D18D018
:103EA00033689B6924EA03039BB2B3FA83F35B098B
:103EB0009F4226D100233363202286F83D2086F8D6
:103EC0003E30326C42F02002326486F83C300120F1
:103ED00027E033685B6924EA03039BB2B3FA83F3F8
:103EE0005B09E5E733685B6924EA030C1FFA8CFC85
:103EF000BCFA8CFC4FEA5C1C674511D1B8F1FF3F5E
:103F0000C3D1C4F30745012DECD033689B6924EA83
:103F1000030C1FFA8CFCBCFA8CFC4FEA5C1CEBE730
:103F20000020BDE8F0812DE9F84305460E46904695
:103F3000994653E01A6842F400721A602B686FF4D5
:103F400080625A6100232B63202285F83D2085F88A
:103F50003E302A6C42F004022A6485F83C3001208D
:103F60004AE0FFF76FFDA0EB0900404502D8B8F129
:103F7000000F33D1012F17D02B689B6926EA03036A
:103F80009BB2003B18BF012343B300232B632022C5
:103F900085F83D2085F83E302A6C42F020022A64E4
:103FA00085F83C30012027E02B685B6926EA030393
:103FB0009BB2003B18BF0123E6E72B689C6926EA09
:103FC0000404A4B2003C18BF0124A4B12B685A69B0
:103FD00012F4806FAED1B8F1FF3FC2D1C6F30747EC
:103FE000012FEAD12B685C6926EA0404A4B2003CE4
:103FF00018BF0124E9E70020BDE8F88370B5044646
:104000000D46164623685B6913F0800F21D12046C8
:10401000FFF71BFFF8B9B5F1FF3FF3D0FFF712FD33
:10402000801BA84201D8002DECD123685B6913F0F6
:10403000800FE7D100232363202284F83D2084F8F9
:104040003E30226C42F02002226484F83C30012091
:1040500000E0002070BD0120FCE700002DE9F043E6
:1040600085B004460D4691461F46DDF830800D9E12
:104070000368196841F48071196000964346002274
:104080004FF00111FFF7FAFE60B9236805F0FE0555
:104090001D613346424626492046FFF744FF68B17A
:1040A000012008E023681B6813F4807F02D04FF4DE
:1040B00000732364032005B0BDE8F083002303935D
:1040C00023685A6903929B690393039B32464146D6
:1040D0002046FFF793FF30B9012F0FD123685FFA15
:1040E00089F61E61E7E7236C042B01D00120E2E78B
:1040F0002268136843F400731360F7E723684FEAFC
:1041000019221A61324641462046FFF777FF20B94F
:1041100023685FFA89F61E61CDE7236C042B01D07A
:104120000120C8E72268136843F400731360F7E7BF
:10413000020001002DE9F04784B004460D46164602
:1041400099460C9FDDF834800268136843F480635D
:1041500013600368196841F480711960CDF800801C
:104160003B4600224FF00111FFF788FE70B95FFA5D
:1041700085FA236805F0FE051D6143463A4641492C
:104180002046FFF7D0FE68B1012008E023681B68D5
:1041900013F4807F02D04FF400732364032004B033
:1041A000BDE8F0870023039323685A6903929B6953
:1041B0000393039B424639462046FFF71FFF80B911
:1041C000B9F1010F18D12368F6B21E614246394693
:1041D0002046FFF713FF68B3236C042B24D0012083
:1041E000DDE7236C042B01D00120D8E72268136897
:1041F00043F400731360F7E72368320A1A614246FA
:1042000039462046FFF7FAFE18B92368F6B21E6158
:10421000DCE7236C042B01D00120C0E7226813687F
:1042200043F400731360F7E72268136843F40073E4
:104230001360D4E72268136843F480731360CDF8E9
:1042400000803B4600224FF001112046FFF716FE8A
:1042500068B922684AF00103136143463A460949A6
:104260002046FFF760FE002899D0012097E72368D9
:104270001B6813F4807F02D04FF400732364032083
:104280008DE700BF0200010070B504460D461646DA
:1042900023685B6913F0040F21D12046FFF7D5FD99
:1042A000F8B9B5F1FF3FF3D0FFF7CCFB801BA84274
:1042B00001D8002DECD123685B6913F0040FE7D11E
:1042C00000232363202284F83D2084F83E30226CB2
:1042D00042F02002226484F83C30012000E00020FB
:1042E00070BD0120FCE770B504460D46164614E08B
:1042F0006FF010025A6100232363202284F83D20CE
:1043000084F83E30226C226484F83C30012025E0A1
:1043100023685B6913F0400F10D02368586910F0D0
:10432000400F1AD1586910F0100FE1D1FFF78AFB46
:10433000801BA842ECD8002DEFD1E9E700232363CE
:10434000202284F83D2084F83E30226C42F0200286
:10435000226484F83C30012000E0002070BD0000A1
:10436000002800F0CC8070B5044690F83D30002B5A
:1043700077D0242384F83D302268136823F00103AA
:1043800013602268136843F40043136022681368C3
:1043900023F40043136000F01BFE62685A4B9A42FC
:1043A00064D85A4B98428CBF00230123002B40F065
:1043B000A8805749A1FB00318B0C25686A6822F060
:1043C0003F0242EA91426A6021680A6A22F03F0293
:1043D00066684D4DAE424FD8013313430B622168DE
:1043E000CA6922F44F4222F0FF026668464B9E42A1
:1043F0004CD8431E7600B3FBF6F3013340F6FC7055
:10440000034278D0C3F30B031343CB6121680B68DD
:1044100023F0C003E269206A024313430B60216862
:104420008B6823F4034323F0FF032269E06802430F
:1044300013438B602168CB6823F0FF036269A06996
:1044400002431343CB602268136843F001031360F7
:1044500000202064202384F83D30206384F83E004F
:1044600070BD80F83C30FCF7D5FF82E7294B9842BD
:104470008CBF0023012399E74FF4967505FB03F3E6
:10448000254DA5FB03539B090133A6E7A368BBB9E0
:10449000451E06EB460CB5FBFCF50135C5F30B05D7
:1044A000B5FA85F56D0945BBC3B9013806EB46037E
:1044B000B0FBF3F30133C3F30B0343F40043A3E76F
:1044C000451E06EB860C0CEB8C0CB5FBFCF50135A0
:1044D000C5F30B05B5FA85F56D09E4E7013806EB80
:1044E000860303EB8303B0FBF3F30133C3F30B0346
:1044F00043F4404388E7042386E7012384E701204F
:1045000070470120ACE700BFA08601007F841E0039
:1045100083DE1B43FF083D00D34D62102DE9F043BD
:1045200083B004460F46904699460C9EFFF78AFAE0
:10453000054694F83D00C0B2202803D0022003B005
:10454000BDE8F0830095192301224B492046FFF76F
:1045500095FC002840F0898094F83C30012B00F055
:104560008680012384F83C3023681A6812F0010F1A
:1045700003D11A6842F001021A602268136823F41A
:1045800000631360212384F83D30402384F83E30DB
:10459000002323640A9B6362BDF82C306385638D1E
:1045A0002385364BE362019500964B4642463946D9
:1045B0002046FFF753FD00285BD1238D002B35D01B
:1045C0002A4631462046FFF719FD20BB626A236860
:1045D00012781A61626A531C6362218D013989B2B3
:1045E0002185638D9BB2013B9BB26385236858692B
:1045F00010F0040FE1D00029DFD052781A61636A0D
:1046000001336362238D013B2385638D9BB2013BA4
:104610009BB26385D1E7236C042B01D001208EE788
:104620002268136843F400731360F7E72A463146A3
:104630002046FFF729FE50B1236C042B01D0012046
:104640007DE72268136843F400731360F7E722687C
:10465000136843F400731360202384F83D30002373
:1046600084F83E3084F83C3069E7022067E7022096
:1046700065E7012063E700BF020010000000FFFFB4
:104680002DE9F04389B004460F4690469946129EA4
:1046900000230793FFF7D6F9054694F83D00C0B212
:1046A000202804D00227384609B0BDE8F0830095E1
:1046B0001923012281492046FFF7E0FB002840F042
:1046C000728194F83C30012B00F06F81012384F853
:1046D0003C3023681A6812F0010F03D11A6842F0C7
:1046E00001021A602268136823F400631360222316
:1046F00084F83D30402384F83E3000232364109B2F
:104700006362BDF844306385638D23856C4BE3623F
:10471000019500964B46424639462046FFF70AFD72
:104720000746002840F04381238D5BB9039323683B
:104730005A6903929A690392039A1A6842F40072C2
:104740001A60EDE0012B0FD0022B21D022681368F4
:1047500043F4806313600023069323685A6906922A
:104760009B690693069BDBE02268136823F4806351
:10477000136072B60023049323685A6904929A69FD
:104780000492049A1A6842F400721A6062B6C7E092
:104790002268136843F40063136072B60023059324
:1047A00023685A6905929A690592059A1A6822F453
:1047B00080621A6062B6B3E02A4631462046FFF7AF
:1047C00092FD002840F0F58023681A69636A1A7028
:1047D000636A01336362238D013B2385638D9BB242
:1047E000013B9BB263859BE000953346002235492F
:1047F0002046FFF743FB002840F0DF802268136863
:1048000023F48063136072B623681A69636A1A70AE
:10481000636A01336362238D013B2385638D9BB201
:10482000013B9BB26385284B1B68DB08274AA2FB30
:1048300003231B0A03EB8303C3EBC3030793079B09
:10484000013B0793079B002B28D023685A6912F07D
:10485000040FF4D01A6842F400721A6023681A69CF
:10486000636A1A70636A01336362238D013B238597
:10487000638D9BB2013B9BB2638562B623681A6964
:10488000636A1A70636A01336362238D013B238577
:10489000638D9BB2013B9BB2638541E02363202281
:1048A00084F83D2084F83E30226C42F020022264DD
:1048B00062B684F83C300127F5E600BF0200100024
:1048C0000000FFFF040001003800002089B5F81443
:1048D0002A4631462046FFF706FD00286FD123689F
:1048E0001A69636A1A70626A531C6362238D013B02
:1048F0002385638D9BB2013B9BB263852368596915
:1049000011F0040F0CD01B695370636A01336362AA
:10491000238D013B2385638D9BB2013B9BB2638555
:10492000238D002B36D0032BD2D8012B3FF444AF7C
:10493000022B7FF459AF00953346002221492046CF
:10494000FFF79CFA002836D172B62268136843F448
:104950000073136023681A69636A1A70636A01330B
:104960006362238D013B2385638D9BB2013B9BB228
:10497000638562B623681A69636A1A70636A0133D1
:104980006362238D013B2385638D9BB2013B9BB208
:104990006385C5E7202384F83D30002384F83E304A
:1049A00084F83C307FE602277DE602277BE601277C
:1049B00079E6012777E6012775E6012773E60127E7
:1049C00071E600BF0400010082B0084B1B68084A72
:1049D000A2FB03235B0A00FB03F3019300BF019BCF
:1049E0005A1E0192002BF9D102B070473800002006
:1049F000D34D6210002800F0F18170B582B00446FA
:104A0000036813F0010F2CD0994B5B6803F00C0383
:104A1000042B1DD0964B5B6803F00C03082B12D0BF
:104A20006368B3F5803F41D0002B55D103F180433B
:104A300003F504331A6822F480321A601A6822F4EB
:104A400080221A6037E08A4B5B6813F4803FE7D01E
:104A5000874B1B6813F4003F03D06368002B00F002
:104A6000BF81236813F0020F75D0814B5B6813F090
:104A70000C0F5FD07E4B5B6803F00C03082B54D007
:104A80002369002B00F08A807A4B01221A60FEF71E
:104A9000D9FF0546764B1B6813F0020F75D1FEF760
:104AA000D1FF401B0228F5D903209EE1704A13680C
:104AB00043F480331360636843B3FEF7C3FF0546D6
:104AC0006B4B1B6813F4003FCBD1FEF7BBFF401BC1
:104AD0006428F5D9032088E1B3F5A02F09D0644BF1
:104AE0001A6822F480321A601A6822F480221A604E
:104AF000E1E703F18043A3F53C331A6842F48022D6
:104B00001A601A6842F480321A60D4E7FEF79AFFFE
:104B10000546574B1B6813F4003FA2D0FEF792FFE7
:104B2000401B6428F5D903205FE1514B5B6813F407
:104B3000803FA5D14E4B1B6813F0020F03D02369B1
:104B4000012B40F04F814A4A136823F0F803616952
:104B500043EAC1031360236813F0080F33D0A3693D
:104B6000002B5CD0434B0122C3F88024FEF76AFF80
:104B700005463F4B5B6A13F0020F21D1FEF762FF3F
:104B8000401B0228F5D903202FE1394A136823F08E
:104B9000F803616943EAC1031360DCE7354B002287
:104BA0001A60FEF74FFF0546314B1B6813F0020FEA
:104BB000D1D0FEF747FF401B0228F5D9032014E1AE
:104BC0000120FFF701FF236813F0040F00F0968027
:104BD000274BDB6913F0805F34D1254BDA6942F053
:104BE0008052DA61DB6903F080530193019B012558
:104BF000214B1B6813F4807F26D0E368012B3DD046
:104C0000002B53D103F1804303F504331A6A22F0D9
:104C100001021A621A6A22F004021A6233E0154B8A
:104C20000022C3F88024FEF70DFF0546104B5B6A97
:104C300013F0020FC7D0FEF705FF401B0228F5D97D
:104C40000320D2E00025D3E70B4A136843F48073B6
:104C50001360FEF7F7FE0646074B1B6813F4807FD0
:104C6000CBD1FEF7EFFE801B6428F5D90320BCE012
:104C70000010024000004242007000405F4A136A88
:104C800043F001031362E36833B3FEF7DBFE06462D
:104C90005A4B1B6A13F0020F2FD1FEF7D3FE801B75
:104CA00041F288339842F3D903209EE0052B09D0C6
:104CB000524B1A6A22F001021A621A6A22F00402A6
:104CC0001A62E0E74D4B1A6A42F004021A621A6A4D
:104CD00042F001021A62D6E7FEF7B4FE0646474BE1
:104CE0001B6A13F0020F08D0FEF7ACFE801B41F2E6
:104CF00088339842F3D9032077E0E5B9E369002BC4
:104D000072D03E4A526802F00C02082A56D0022B9A
:104D100017D03B4B00221A66FEF794FE0446374B31
:104D20001B6813F0007F47D0FEF78CFE001B0228A3
:104D3000F5D9032059E0314AD36923F08053D36178
:104D4000DCE72F4B00221A66FEF77CFE05462B4B54
:104D50001B6813F0007F06D0FEF774FE401B02288C
:104D6000F5D9032041E0236AB3F5803F1AD02349E7
:104D70004B6823F47413226A606A024313434B6046
:104D80001F4B01221A66FEF75DFE04461B4B1B6893
:104D900013F0007F0ED1FEF755FE001B0228F5D957
:104DA000032022E0154A536823F40033A1680B4323
:104DB0005360DCE7002018E0002016E0012B16D03D
:104DC0000E4B5B6803F48031226A914211D103F4E7
:104DD0007013626A93420ED1002006E001207047F2
:104DE000012002E0012000E0002002B070BD01209F
:104DF000FBE70120F9E70120F7E700BF00100240C0
:104E0000000042420F4B5B6803F00C02082A01D0FD
:104E10000D487047C3F383420C49885C13F4803F0C
:104E20000BD0084B5B68C3F34043094AD35C064A86
:104E300002FB00F0B0FBF3F07047064B03FB00F001
:104E4000704700BF0010024000127A00B0990008BD
:104E5000C099000800093D00002800F0A08070B54E
:104E60000D460446524B1B6803F007038B420BD2DE
:104E70004F4A136823F007030B431360136803F0D2
:104E800007038B4240F08D80236813F0020F17D088
:104E900013F0040F04D0474A536843F4E0635360AF
:104EA000236813F0080F04D0424A536843F4605358
:104EB0005360404A536823F0F003A1680B435360EA
:104EC000236813F0010F31D06368012B20D0022B2F
:104ED00025D0384A126812F0020F64D035494A686A
:104EE00022F0030213434B60FEF7ACFD0646314B44
:104EF0005B6803F00C036268B3EB820F16D0FEF719
:104F0000A1FD801B41F288339842F0D9032045E08F
:104F1000284A126812F4003FE0D101203EE0254A01
:104F2000126812F0007FD9D1012037E0204B1B68B6
:104F300003F00703AB420AD91D4A136823F00703A5
:104F40002B431360136803F00703AB422DD1236892
:104F500013F0040F06D0174A536823F4E063E168A6
:104F60000B435360236813F0080F07D0114A5368AE
:104F700023F46053216943EAC1035360FFF742FF02
:104F80000C4B5B68C3F303130B4AD35CD8400B4B49
:104F900018600B4B1868FEF727FC002070BD01203D
:104FA00070470120FAE70120F8E70120F6E700BF8B
:104FB00000200240001002409899000838000020AC
:104FC00040000020014B1868704700BF38000020E7
:104FD00008B5FFF7F7FF044B5B68C3F30223034AEE
:104FE000D35CD84008BD00BF00100240A89900085B
:104FF00008B5FFF7E7FF044B5B68C3F3C223034A1E
:10500000D35CD84008BD00BF00100240A89900083A
:105010000F2303600B4B5A6802F0030242605A6888
:1050200002F0F00282605A6802F4E062C2605B68DB
:10503000DB0803F4E0630361034B1B6803F0070321
:105040000B607047001002400020024070470000D3
:1050500090F83D30DBB2012B27D1022380F83D30A0
:105060000268D36843F00103D3600368114A934296
:1050700010D0B3F1804F0DD0A2F59432934209D0F5
:1050800002F58062934205D01A6842F001021A606C
:10509000002070479A6802F00702062A07D01A68B3
:1050A00042F001021A600020704701207047002082
:1050B000704700BF002C0140704770477047704731
:1050C00010B5044603681A6912F0020F11D0DA68AD
:1050D00012F0020F0DD06FF002021A610123037764
:1050E00003689B6913F0030F70D0FFF7E6FF0023FE
:1050F000237723681A6912F0040F12D0DA6812F0CD
:10510000040F0ED06FF004021A6102232377236884
:105110009B6913F4407F5FD02046FFF7CEFF00234A
:10512000237723681A6912F0080F12D0DA6812F098
:10513000080F0ED06FF008021A610423237723684A
:10514000DB6913F0030F4ED02046FFF7B6FF0023B4
:10515000237723681A6912F0100F12D0DA6812F060
:10516000100F0ED06FF010021A6108232377236806
:10517000DB6913F4407F3DD02046FFF79EFF0023FC
:10518000237723681A6912F0010F03D0DA6812F04E
:10519000010F36D123681A6912F0800F03D0DA6844
:1051A00012F0800F34D123681A6912F0400F03D037
:1051B000DA6812F0400F32D123681A6912F0200F1A
:1051C00003D0DA6812F0200F30D110BDFFF774FF62
:1051D0002046FFF773FF8AE72046FFF76DFF204662
:1051E000FFF76CFF9BE72046FFF766FF2046FFF7BF
:1051F00065FFACE72046FFF75FFF2046FFF75EFF45
:10520000BDE76FF001021A612046FEF763FAC1E7BD
:105210006FF080021A61204600F077F8C3E76FF064
:1052200040021A612046FFF74AFFC5E76FF02002EF
:105230001A61204600F068F8C7E7000003681B4ABF
:1052400090420AD0B0F1804F07D0A2F5943290423C
:1052500003D002F58062904203D123F070034A68C4
:105260001343124A90420AD0B0F1804F07D0A2F502
:105270009432904203D002F58062904203D123F42D
:105280004073CA68134323F080034A6913430360E1
:105290008B68C3620B688362044B984202D001237F
:1052A000436170470B690363F9E700BF002C0140BD
:1052B00040B310B5044690F83D30F3B1022384F8B2
:1052C0003D30214651F8040BFFF7B8FF012384F865
:1052D000463084F83E3084F83F3084F8403084F81B
:1052E000413084F8423084F8433084F8443084F804
:1052F000453084F83D30002010BD80F83C30FFF789
:10530000A5FEDBE70120704770477047026802F195
:105310000C0353E8003F23F490730C3242E8003151
:105320000029F3D1026802F1140353E8003F23F08F
:105330000103143242E800310029F3D1036B012B41
:1053400005D0202380F842300023036370470268B1
:1053500002F10C0353E8003F23F010030C3242E843
:1053600000310029F3D1ECE790F84130DBB2212B7A
:1053700001D0022070478368B3F5805F17D0036ABD
:105380005A1C02621A7803685A60C38C9BB2013BB4
:105390009BB2C3844BB90268D36823F08003D36007
:1053A0000268D36843F04003D3600020704703696C
:1053B000002BE4D1036A1B880268C3F3080353601F
:1053C000036A02330362E0E710B50446026813691A
:1053D00023F44053C1680B4313618368026913438C
:1053E00042691A430168CB6823F4B05323F00C03DD
:1053F0001343CB600268536923F4407381690B4304
:1054000053610268134B9A4220D0FFF7E1FD024638
:1054100002EB820202EB820263689B00B2FBF3F2B2
:105420000D48A0FB02314909642303FB11231B0132
:105430003233A0FB03235B0903F0F00202EB0112FD
:1054400003F00F03216813448B6010BDFFF7D0FDFC
:105450000246DDE7003801401F85EB5160B310B50F
:10546000044690F8413013B3242384F84130226875
:10547000D36823F40053D3602046FFF7A5FF2268CA
:10548000136923F4904313612268536923F02A03BC
:1054900053612268D36843F40053D36000206064F2
:1054A000202384F8413084F84230606310BD80F8D6
:1054B0004030FEF73FFAD7E701207047704708B544
:1054C0000168CA6822F04002CA60202280F84120A8
:1054D000FFF7F4FF002008BD704708B5406A0023BD
:1054E000C385C384FFF7F8FF08BD704790F84230CA
:1054F000DBB2222B69D18368B3F5805F4FD0826A1B
:10550000B3F5805F04D0002B56D10369002B53D133
:1055100003685B681370836A01338362C38D9BB237
:10552000013B9BB2C385002B51D100B583B002680B
:10553000D36823F02003D3600268D36823F4807318
:10554000D3600268536923F001035361202380F87C
:10555000423000234363036B012B33D100230363E9
:10556000026802F10C0353E8003F23F010030C32F1
:1055700042E800310029F3D103681A6812F0100FD5
:1055800006D0002201921A6801925B680193019B88
:10559000818DFFF7AAFF002003B05DF804FB0269CC
:1055A000002AACD1826A03685B68C3F308031380E6
:1055B000836A02338362B1E703685B6803F07F03A9
:1055C0001370A8E7FBF784FEE5E702207047002090
:1055D0007047000030B583B0044602681368D06895
:1055E000516913F00F0505D113F0200F02D010F010
:1055F000200F19D12DB111F0010119D110F4907FB4
:1056000016D1216B01297DD013F0800F03D010F04B
:10561000800F40F0188113F0400F03D010F0400FBE
:1056200040F0158103B030BD2046FFF75FFFF9E77A
:1056300013F0010F06D010F4807F03D0626C42F0AB
:105640000102626413F0040F04D019B1626C42F0DD
:105650000202626413F0020F04D019B1626C42F0CE
:105660000402626413F0080F07D010F0200F00D17D
:1056700019B1626C42F008026264626C002AD1D0F7
:1056800013F0200F02D010F0200F29D123685B699E
:1056900003F04003626C12F0080F00D163B32046A0
:1056A000FFF734FE23685B6913F0400F20D02268B7
:1056B00002F1140353E8003F23F04003143242E8A0
:1056C00000310029F3D1E36B73B1634A5A63E06B95
:1056D000FEF74EFA0028A5D0E06B436B9847A1E790
:1056E0002046FFF703FFD1E72046FFF7F5FE99E7D5
:1056F0002046FFF7F1FE95E72046FFF7EDFE002379
:1057000063648FE713F0100F3FF47EAF10F0100FBB
:105710003FF47AAF00230193136801935368019318
:10572000019B536913F0400F51D0E26B13685B6823
:105730009BB2002B3FF476AFA18D99427FF672AFFA
:10574000E3859369202B37D0226802F10C0353E8DC
:10575000003F23F480730C3242E800310029F3D17A
:10576000226802F1140353E8003F23F001031432CE
:1057700042E800310029F3D1226802F1140353E812
:10578000003F23F04003143242E800310029F3D1F6
:10579000202384F8423000232363226802F10C03A3
:1057A00053E8003F23F010030C3242E80031002997
:1057B000F3D1E06BFEF7B8F902236363A18DE38DAB
:1057C0009BB2C91A89B22046FFF78FFE2AE7A18D46
:1057D000E38D9BB2C91A89B2E38D9BB2002B3FF4D3
:1057E00021AF00293FF41EAF226802F10C0353E8F9
:1057F000003F23F490730C3242E800300028F3D1CC
:10580000226802F1140353E8003F23F0010314322D
:1058100042E800300028F3D1202384F842300023EE
:105820002363226802F10C0353E8003F23F01003C6
:105830000C3242E800300028F3D102236363204693
:10584000FFF753FEEEE62046FFF78EFDEAE6204620
:10585000FFF735FEE6E600BFDB5400088162828573
:10586000C28500234364222380F84230036923B1B8
:105870000268D36843F48073D3600268536943F0CD
:10588000010353610268D36843F02003D360002012
:10589000704708B590F84230DBB2202B08D149B1EF
:1058A0000AB9012008BD00230363FFF7D7FFF9E71A
:1058B0000220F7E70120F5E7EFF3058393B9EFF353
:1058C000108393B90C4B1868022804D080B90A4B96
:1058D00001221A607047EFF31183002BF6D06FF0AE
:1058E000050070476FF0050070476FF005007047C6
:1058F0004FF0FF30704700BF5010002008B5EFF3A5
:105900000583B3B9EFF31083B3B90E4B1B68022BB9
:1059100008D0012B13D10B4B02221A6001F05EFD5F
:10592000002008BDEFF31182002AF2D06FF00500CD
:10593000F7E76FF00500F4E76FF00500F1E74FF0CF
:10594000FF30EEE750100020F0B587B0002404943B
:10595000EFF30584002C44D1EFF31083002B40D1EA
:10596000344B1B68022B16D000283AD000238DF848
:1059700017306AB3156895B1936903B918235C1E93
:10598000372C52D8546814F0010F50D156694EB1DB
:105990004FEA960C08E0EFF3118313BBE4E70DF137
:1059A0001705E9E74FF0800C946834B1D768B7F574
:1059B000916F02D3176907B1B6B914B14FF0FF3434
:1059C0000CE0D46894B914699CB14FF0FF3405E041
:1059D000002418234FF0800C0DF11705012C0AD07C
:1059E000ACB1049807B0F0BD0124F7E74FF0FF34E5
:1059F000F4E70024F2E7146992680292019400939C
:105A00000B466246294601F077FC0490E9E704AAB8
:105A1000019200930B461FFA8CF2294601F0A8FC74
:105A20000128DED000230493DBE70020DAE7002022
:105A3000D8E700BF5010002008B5EFF30583A3B9E5
:105A4000EFF31083A3B90C4B1B68022B02D040B9B3
:105A5000002008BDEFF31183002BF8D06FF0050094
:105A6000F7E701F027FE0020F3E76FF00500F0E70D
:105A70006FF00500EDE700BF5010002008B5EFF310
:105A8000058333BBEFF310832BBB154B1B68022B35
:105A90000CD0D0B1836813B1C2681F2A11D85BB192
:105AA0004FF0FF33CBB900F090F913E0EFF311831F
:105AB000002BEED000200DE0C36843B14FF0FF3360
:105AC000F0E7184600F05CF904E00023EAE7002361
:105AD000E8E7002008BD0020FCE70020FAE700BF4F
